:100000000C9434000C943E000C943E000C943E0082
:100010000C943E000C943E000C943E000C943E0068
:100020000C943E000C943E000C943E000C943E0058
:100030000C943E000C943E000C943E000C943E0048
:100040000C943E000C943E000C943E000C943E0038
:100050000C943E000C943E000C943E000C943E0028
:100060000C943E000C943E0011241FBECFEFD8E04C
:10007000DEBFCDBF0E9468000C9488000C94000085
:1000800088E18093C10086E08093C20087E6809378
:10009000C4000895982F8091C00085FFFCCF9093F5
:1000A000C60008958091C00087FFFCCF8091C600F4
:1000B0000895F999FECF92BD81BD60BDFA9AF99A73
:1000C0000895F999FECF92BD81BDF89A80B5089543
:1000D00088E18093C10086E08093C20087E6809328
:1000E000C40020E030E0F999FECF32BD21BDF89A7E
:1000F00090B58091C00085FFFCCF9093C6002F5F24
:100100003F4F84E02030380771F780E090E0089599
:04011000F894FFCF91
:00000001FF
