:100000000C9434000C9446000C9446000C9446006A
:100010000C9446000C9446000C9446000C94460048
:100020000C9446000C9446000C9446000C94460038
:100030000C9446000C9446000C9446000C94460028
:100040000C9446000C9446000C9446000C94460018
:100050000C9446000C9446000C9446000C94460008
:100060000C9446000C94460011241FBECFEFD8E03C
:10007000DEBFCDBF11E0A0E0B1E001C01D92A23013
:10008000B107E1F70E9470000C948E000C94000000
:1000900088E18093C10086E08093C20087E6809368
:1000A000C4000895982F8091C00085FFFCCF9093E5
:1000B000C60008958091C00087FFFCCF8091C600E4
:1000C0000895F999FECF92BD81BD60BDFA9AF99A63
:1000D0000895F999FECF92BD81BDF89A80B5089533
:1000E000FF920F931F93CF93DF93C0910001D091A4
:1000F000010188E1F82E06E017E6F092C1000093B6
:10010000C2001093C4008091C00087FFFCCF6091B3
:10011000C600CE010E9461002196EFCFF894FFCF78
:00000001FF
