:100000000C9434000C943E000C943E000C943E0082
:100010000C943E000C943E000C943E000C943E0068
:100020000C943E000C943E000C943E000C943E0058
:100030000C943E000C943E000C943E000C943E0048
:100040000C943E000C943E000C943E000C943E0038
:100050000C943E000C943E000C943E000C943E0028
:100060000C943E000C943E0011241FBECFEFD8E04C
:10007000DEBFCDBF0E944C000C945C000C940000CD
:1000800083E886BD14BC84E085BDA89BFECF14BC6C
:1000900015BC81E085BB0895259A2D9ACAEFD0E062
:1000A0000E9440002197E1F72D98CAEFD0E00E940E
:0C00B00040002197E1F7F1CFF894FFCF5A
:00000001FF
