:100000000C9434000C943E000C943E000C943E0082
:100010000C943E000C943E000C943E000C943E0068
:100020000C943E000C943E000C943E000C943E0058
:100030000C943E000C943E000C943E000C943E0048
:100040000C943E000C943E000C943E000C943E0038
:100050000C943E000C943E000C943E000C943E0028
:100060000C943E000C943E0011241FBECFEFD8E04C
:10007000DEBFCDBF0E945E000C9477000C940000A0
:1000800016BC87BD84B5806884BD84B5836084BD9B
:1000900085B5836085BD0895109285001092840017
:1000A0001092800082E080938100B09BFECF10927E
:1000B00080001092810081E086BB08950F931F930A
:1000C000CF93DF93569A05E010E0C0E0D0E0CE0178
:1000D0000E944000C00FD11F209719F0CF3FD105DB
:1000E00019F4109501951F4F0E944C00F0CFF89421
:0200F000FFCF40
:00000001FF
