:100000000C9434000C9449000C9449000C94490061
:100010000C9449000C9449000C9449000C9449003C
:100020000C9449000C9449000C9449000C9449002C
:100030000C9449000C9449000C9449000C9449001C
:100040000C9449000C9449000C9449000C9449000C
:100050000C9449000C9449000C9449000C944900FC
:100060000C9449000C94490011241FBECFEFD8E036
:10007000DEBFCDBF11E0A0E0B1E0E0E3F1E002C0FF
:1000800005900D92A830B107D9F70E9469000C9431
:1000900096000C94000016BC87BD84B5806884BDB2
:1000A00084B5836084BD85B5836085BD0895109255
:1000B0008500109284001092800085E0809381007A
:1000C000B09BFECF109280001092810081E086BB31
:1000D0000895DF93CF93CDB7DEB728970FB6F89486
:1000E000DEBF0FBECDBF569ADE011196E0E0F1E013
:1000F00088E001900D928150E1F789819A810E94F8
:100100004B000E9457008B819C810E944B000E94F3
:1001100057008D819E810E944B000E9457008F8165
:1001200098850E944B000E945700FFCFF894FFCFA4
:0801300002003F00BF00FF00C8
:00000001FF
