:100000000C9434000C943E000C943E000C943E0082
:100010000C943E000C943E000C943E000C943E0068
:100020000C943E000C943E000C943E000C943E0058
:100030000C943E000C943E000C943E000C943E0048
:100040000C943E000C943E000C943E000C943E0038
:100050000C943E000C943E000C943E000C943E0028
:100060000C943E000C943E0011241FBECFEFD8E04C
:10007000DEBFCDBF0E944C000C9462000C940000C7
:1000800083E886BD14BC84E085BDA89BFECF14BC6C
:1000900015BC81E085BB0895CF93DF93259A2D9AF7
:1000A000C0E0D0E00E9440002196CA3FD105D1F7C0
:1000B0002D98C0E0D0E00E9440002196CA3FD105B3
:0800C000D1F7EDCFF894FFCF5A
:00000001FF
