:100000000C9434000C943E000C943E000C943E0082
:100010000C943E000C943E000C943E000C943E0068
:100020000C943E000C943E000C943E000C943E0058
:100030000C943E000C9440000C943E000C943E0046
:100040000C943E000C943E000C943E000C943E0038
:100050000C943E000C943E000C943E000C943E0028
:100060000C943E000C943E0011241FBECFEFD8E04C
:10007000DEBFCDBF0E9458000C94BA000C94000063
:100080001F920F920FB60F9211248F939F9385B1F9
:1000900090E2892785B98CED9BE090938500809351
:1000A00084009F918F910F900FBE0F901F90189515
:1000B00084B18E6384B98CED9BE09093850080932E
:1000C00084001092800084E08093810081E080931E
:1000D0006F00789444E050E0A1E0B0E060E971E0A6
:1000E00020C025B1CD01042E02C0880F991F0A94AB
:1000F000E2F7982F282B25B920ED37E0FB01319747
:10010000F1F721503040D1F785B19095982395B9FA
:1001100080ED97E0FB013197F1F70197D9F7415056
:10012000504014161506ECF242E050E025B1CD0126
:10013000042E02C0880F991F0A94E2F7982F282BEB
:1001400025B920ED37E0FB013197F1F72150304020
:10015000D1F785B19095982395B980ED97E0FB0193
:100160003197F1F70197D9F74F5F5F4F4430510551
:08017000E9F6D7CFF894FFCFA8
:00000001FF
