:100000000C9434000C943E000C943E000C943E0082
:100010000C943E000C943E000C943E000C943E0068
:100020000C943E000C943E000C943E000C943E0058
:100030000C943E000C94B3000C943E000C943E00D3
:100040000C943E000C943E000C943E000C943E0038
:100050000C943E000C943E000C943E000C943E0028
:100060000C943E000C943E0011241FBECFEFD8E04C
:10007000DEBFCDBF0E944B000C94C5000C94000065
:1000800016BC14BC85E085BDA89BFECF14BC15BC76
:1000900081E085BB0895EF92FF920F931F93CF935A
:1000A000DF93259A8AB1806F8AB98CED9BE090939B
:1000B0008500809384001092800084E0809381000A
:1000C00081E080936F007894C7E0D0E081E0E82E73
:1000D000F12C1FC08BB187010C2E02C0000F111F25
:1000E0000A94E2F7802B8BB90E9440000E944000E6
:1000F0000E9440000E9440008BB1009508230BB97C
:100100000E9440000E9440000E9440000E94400067
:100110002197C430D105F4F6C4E0D0E08BB187015B
:100120000C2E02C0000F111F0A94E2F7802B8BB92E
:100130000E9440000E9440000E9440000E94400037
:100140008BB1009508230BB90E9440000E9440002B
:100150000E9440000E9440002196C830D105F1F66F
:10016000C7E0D0E0D6CF1F920F920FB60F921124A6
:100170008F939F9385B190E2892785B99F918F9145
:0E0180000F900FBE0F901F901895F894FFCFB0
:00000001FF
