:100000000C9434000C9446000C9446000C9446006A
:100010000C9446000C9446000C9446000C94460048
:100020000C9446000C9446000C9446000C94460038
:100030000C9446000C9446000C9446000C94460028
:100040000C9448000C9446000C9446000C94460016
:100050000C9446000C9446000C9446000C94460008
:100060000C9446000C94460011241FBECFEFD8E03C
:10007000DEBFCDBF11E0A0E0B1E001C01D92A13014
:10008000B107E1F70E945B000C9470000C94000033
:100090001F920F920FB60F9211248F93809100013F
:1000A0008F5F8093000186E086BD8F910F900FBE19
:1000B0000F901F901895259A86E086BD14BC84E0A9
:1000C00085BD81E080936E00789490E2809100017C
:1000D0008931E1F785B1892785B910920001F6CF02
:0400E000F894FFCFC2
:00000001FF
