:100000000C9434000C9446000C9446000C9446006A
:100010000C9446000C9446000C9446000C94460048
:100020000C9446000C9446000C9446000C94460038
:100030000C9446000C9446000C9446000C94460028
:100040000C9448000C9446000C9446000C94460016
:100050000C9446000C9446000C9446000C94460008
:100060000C9446000C94460011241FBECFEFD8E03C
:10007000DEBFCDBF11E0A0E0B1E001C01D92A13014
:10008000B107E1F70E945B000C946E000C94000035
:100090001F920F920FB60F9211248F93809100013F
:1000A0008F5F8093000186E086BD8F910F900FBE19
:1000B0000F901F901895259A86E086BD14BC84E0A9
:1000C00085BD80936E0016BC7894809100018931C3
:1000D00021F485B190E2892785B9FFCFF894FFCF4D
:00000001FF
