:100000000C9434000C9446000C9446000C9446006A
:100010000C9446000C9446000C9446000C94460048
:100020000C9446000C9446000C9446000C94460038
:100030000C9446000C945B000C9446000C94460013
:100040000C9448000C9446000C9446000C94460016
:100050000C9446000C9446000C9446000C94460008
:100060000C9446000C94460011241FBECFEFD8E03C
:10007000DEBFCDBF11E0A0E0B1E001C01D92A13014
:10008000B107E1F70E9473000C9494000C940000F7
:100090001F920F920FB60F9211248F93809100013F
:1000A0008F5F8093000183E886BD8F910F900FBE14
:1000B0000F901F9018951F920F920FB60F92112458
:1000C0008F939F938EEE95E89093850080938400A4
:1000D00085B190E2892785B99F918F910F900FBECE
:1000E0000F901F9018957894259A579A83E886BDAB
:1000F0008EEE95E8909385008093840014BC84E094
:1001000085BD109280008093810081E080936E0015
:1001100080936F00809100018931E1F78BB18058A5
:0C0120008BB910920001F6CFF894FFCFCD
:00000001FF
